{
  "_format": "hh-sol-artifact-1",
  "contractName": "Rafflebot",
  "sourceName": "contracts/Rafflebot.sol",
  "abi": [
    {
      "inputs": [],
      "stateMutability": "nonpayable",
      "type": "constructor"
    },
    {
      "inputs": [],
      "name": "AlreadyEntered",
      "type": "error"
    },
    {
      "inputs": [],
      "name": "RaffleNotOver",
      "type": "error"
    },
    {
      "anonymous": false,
      "inputs": [
        {
          "indexed": true,
          "internalType": "address",
          "name": "from",
          "type": "address"
        },
        {
          "indexed": true,
          "internalType": "uint256",
          "name": "id",
          "type": "uint256"
        },
        {
          "indexed": false,
          "internalType": "uint256",
          "name": "timestamp",
          "type": "uint256"
        }
      ],
      "name": "NewEntry",
      "type": "event"
    },
    {
      "anonymous": false,
      "inputs": [
        {
          "indexed": true,
          "internalType": "uint256",
          "name": "id",
          "type": "uint256"
        },
        {
          "indexed": false,
          "internalType": "uint256",
          "name": "endTime",
          "type": "uint256"
        }
      ],
      "name": "NewRaffle",
      "type": "event"
    },
    {
      "anonymous": false,
      "inputs": [
        {
          "indexed": true,
          "internalType": "address",
          "name": "winner",
          "type": "address"
        },
        {
          "indexed": true,
          "internalType": "uint256",
          "name": "id",
          "type": "uint256"
        },
        {
          "indexed": false,
          "internalType": "uint256",
          "name": "timestamp",
          "type": "uint256"
        }
      ],
      "name": "NewWinner",
      "type": "event"
    },
    {
      "inputs": [],
      "name": "end",
      "outputs": [],
      "stateMutability": "nonpayable",
      "type": "function"
    },
    {
      "inputs": [],
      "name": "endTime",
      "outputs": [
        {
          "internalType": "uint256",
          "name": "",
          "type": "uint256"
        }
      ],
      "stateMutability": "view",
      "type": "function"
    },
    {
      "inputs": [],
      "name": "enter",
      "outputs": [],
      "stateMutability": "nonpayable",
      "type": "function"
    },
    {
      "inputs": [
        {
          "internalType": "uint256",
          "name": "",
          "type": "uint256"
        }
      ],
      "name": "entrants",
      "outputs": [
        {
          "internalType": "address",
          "name": "",
          "type": "address"
        }
      ],
      "stateMutability": "view",
      "type": "function"
    },
    {
      "inputs": [
        {
          "internalType": "address",
          "name": "",
          "type": "address"
        }
      ],
      "name": "entries",
      "outputs": [
        {
          "internalType": "uint256",
          "name": "",
          "type": "uint256"
        }
      ],
      "stateMutability": "view",
      "type": "function"
    },
    {
      "inputs": [],
      "name": "getEndTime",
      "outputs": [
        {
          "internalType": "uint256",
          "name": "",
          "type": "uint256"
        }
      ],
      "stateMutability": "view",
      "type": "function"
    },
    {
      "inputs": [],
      "name": "getEntrants",
      "outputs": [
        {
          "internalType": "address[]",
          "name": "",
          "type": "address[]"
        }
      ],
      "stateMutability": "view",
      "type": "function"
    },
    {
      "inputs": [],
      "name": "getID",
      "outputs": [
        {
          "internalType": "uint256",
          "name": "",
          "type": "uint256"
        }
      ],
      "stateMutability": "view",
      "type": "function"
    },
    {
      "inputs": [
        {
          "internalType": "uint256",
          "name": "_id",
          "type": "uint256"
        }
      ],
      "name": "getWinner",
      "outputs": [
        {
          "internalType": "address",
          "name": "",
          "type": "address"
        }
      ],
      "stateMutability": "view",
      "type": "function"
    },
    {
      "inputs": [],
      "name": "id",
      "outputs": [
        {
          "internalType": "uint256",
          "name": "",
          "type": "uint256"
        }
      ],
      "stateMutability": "view",
      "type": "function"
    },
    {
      "inputs": [
        {
          "internalType": "uint256",
          "name": "",
          "type": "uint256"
        }
      ],
      "name": "winners",
      "outputs": [
        {
          "internalType": "address",
          "name": "",
          "type": "address"
        }
      ],
      "stateMutability": "view",
      "type": "function"
    }
  ],
  "bytecode": "0x608060405234801561001057600080fd5b5060008081905550620151804261002791906100b9565b600181905550424461003991906100b9565b6002819055506000547f3387c6222ffa466e3c4df4a5afaa9076b9fb765c9403bfb96cc9003871fb249c60015460405161007391906100fc565b60405180910390a2610117565b6000819050919050565b7f4e487b7100000000000000000000000000000000000000000000000000000000600052601160045260246000fd5b60006100c482610080565b91506100cf83610080565b92508282019050808211156100e7576100e661008a565b5b92915050565b6100f681610080565b82525050565b600060208201905061011160008301846100ed565b92915050565b610acb806101266000396000f3fe608060405234801561001057600080fd5b50600436106100a95760003560e01c8063af640d0f11610071578063af640d0f14610168578063d30c60f414610186578063e7b4e5ab146101a4578063e97dcb62146101d4578063efbe1c1c146101de578063f29ee125146101e8576100a9565b80633197cbb6146100ae5780634129b2c9146100cc578063439f5ac2146100fc578063a2fb11751461011a578063ab9dbd071461014a575b600080fd5b6100b6610218565b6040516100c3919061074d565b60405180910390f35b6100e660048036038101906100e19190610799565b61021e565b6040516100f39190610807565b60405180910390f35b61010461025b565b604051610111919061074d565b60405180910390f35b610134600480360381019061012f9190610799565b610265565b6040516101419190610807565b60405180910390f35b610152610298565b60405161015f919061074d565b60405180910390f35b6101706102a1565b60405161017d919061074d565b60405180910390f35b61018e6102a7565b60405161019b91906108e0565b60405180910390f35b6101be60048036038101906101b99190610799565b610335565b6040516101cb9190610807565b60405180910390f35b6101dc610374565b005b6101e66104ea565b005b61020260048036038101906101fd919061092e565b6105e0565b60405161020f919061074d565b60405180910390f35b60015481565b60006005600083815260200190815260200160002060009054906101000a900473ffffffffffffffffffffffffffffffffffffffff169050919050565b6000600154905090565b60056020528060005260406000206000915054906101000a900473ffffffffffffffffffffffffffffffffffffffff1681565b60008054905090565b60005481565b6060600380548060200260200160405190810160405280929190818152602001828054801561032b57602002820191906000526020600020905b8160009054906101000a900473ffffffffffffffffffffffffffffffffffffffff1673ffffffffffffffffffffffffffffffffffffffff16815260200190600101908083116102e1575b5050505050905090565b6003818154811061034557600080fd5b906000526020600020016000915054906101000a900473ffffffffffffffffffffffffffffffffffffffff1681565b600054600460003373ffffffffffffffffffffffffffffffffffffffff1673ffffffffffffffffffffffffffffffffffffffff16815260200190815260200160002054036103ee576040517f7863668300000000000000000000000000000000000000000000000000000000815260040160405180910390fd5b6003339080600181540180825580915050600190039060005260206000200160009091909190916101000a81548173ffffffffffffffffffffffffffffffffffffffff021916908373ffffffffffffffffffffffffffffffffffffffff160217905550600054600460003373ffffffffffffffffffffffffffffffffffffffff1673ffffffffffffffffffffffffffffffffffffffff168152602001908152602001600020819055506000543373ffffffffffffffffffffffffffffffffffffffff167fc636ca1005fc6454dfb44053046512fb54887d7778dd23ecf1d09cf75216a5d3426040516104e0919061074d565b60405180910390a3565b4260015411610525576040517f93361eb100000000000000000000000000000000000000000000000000000000815260040160405180910390fd5b600061052f6105f8565b905080600560008054815260200190815260200160002060006101000a81548173ffffffffffffffffffffffffffffffffffffffff021916908373ffffffffffffffffffffffffffffffffffffffff16021790555061058c61067e565b6000548173ffffffffffffffffffffffffffffffffffffffff167fc92288394ef32dd1ce054c884b9a003055b8d8d63daf2e1c2d3385bdc59b65c2426040516105d5919061074d565b60405180910390a350565b60046020528060005260406000206000915090505481565b60008060038054905090506000816002544244610615919061098a565b61061f919061098a565b61062991906109ed565b905060006003828154811061064157610640610a1e565b5b9060005260206000200160009054906101000a900473ffffffffffffffffffffffffffffffffffffffff1690508160028190555080935050505090565b6003600061068c91906106f6565b620151804261069b919061098a565b6001819055506000808154809291906106b390610a4d565b91905055506000547f3387c6222ffa466e3c4df4a5afaa9076b9fb765c9403bfb96cc9003871fb249c6001546040516106ec919061074d565b60405180910390a2565b50805460008255906000526020600020908101906107149190610717565b50565b5b80821115610730576000816000905550600101610718565b5090565b6000819050919050565b61074781610734565b82525050565b6000602082019050610762600083018461073e565b92915050565b600080fd5b61077681610734565b811461078157600080fd5b50565b6000813590506107938161076d565b92915050565b6000602082840312156107af576107ae610768565b5b60006107bd84828501610784565b91505092915050565b600073ffffffffffffffffffffffffffffffffffffffff82169050919050565b60006107f1826107c6565b9050919050565b610801816107e6565b82525050565b600060208201905061081c60008301846107f8565b92915050565b600081519050919050565b600082825260208201905092915050565b6000819050602082019050919050565b610857816107e6565b82525050565b6000610869838361084e565b60208301905092915050565b6000602082019050919050565b600061088d82610822565b610897818561082d565b93506108a28361083e565b8060005b838110156108d35781516108ba888261085d565b97506108c583610875565b9250506001810190506108a6565b5085935050505092915050565b600060208201905081810360008301526108fa8184610882565b905092915050565b61090b816107e6565b811461091657600080fd5b50565b60008135905061092881610902565b92915050565b60006020828403121561094457610943610768565b5b600061095284828501610919565b91505092915050565b7f4e487b7100000000000000000000000000000000000000000000000000000000600052601160045260246000fd5b600061099582610734565b91506109a083610734565b92508282019050808211156109b8576109b761095b565b5b92915050565b7f4e487b7100000000000000000000000000000000000000000000000000000000600052601260045260246000fd5b60006109f882610734565b9150610a0383610734565b925082610a1357610a126109be565b5b828206905092915050565b7f4e487b7100000000000000000000000000000000000000000000000000000000600052603260045260246000fd5b6000610a5882610734565b91507fffffffffffffffffffffffffffffffffffffffffffffffffffffffffffffffff8203610a8a57610a8961095b565b5b60018201905091905056fea26469706673582212208cbcc0b1586bfd09a4dfda764746b6ce6ffa7f3b451bf5e50f0bd3052c4feba964736f6c63430008110033",
  "linkReferences": {},
  "deployedLinkReferences": {}
}