{
  "_format": "hh-sol-artifact-1",
  "contractName": "Rafflebot",
  "sourceName": "contracts/Rafflebot.sol",
  "abi": [
    {
      "inputs": [],
      "stateMutability": "nonpayable",
      "type": "constructor"
    },
    {
      "inputs": [],
      "name": "AlreadyEntered",
      "type": "error"
    },
    {
      "inputs": [],
      "name": "RaffleNotOver",
      "type": "error"
    },
    {
      "anonymous": false,
      "inputs": [
        {
          "indexed": true,
          "internalType": "address",
          "name": "from",
          "type": "address"
        },
        {
          "indexed": true,
          "internalType": "uint256",
          "name": "id",
          "type": "uint256"
        },
        {
          "indexed": false,
          "internalType": "uint256",
          "name": "timestamp",
          "type": "uint256"
        }
      ],
      "name": "NewEntry",
      "type": "event"
    },
    {
      "anonymous": false,
      "inputs": [
        {
          "indexed": true,
          "internalType": "uint256",
          "name": "id",
          "type": "uint256"
        },
        {
          "indexed": false,
          "internalType": "uint256",
          "name": "endTime",
          "type": "uint256"
        }
      ],
      "name": "NewRaffle",
      "type": "event"
    },
    {
      "anonymous": false,
      "inputs": [
        {
          "indexed": true,
          "internalType": "address",
          "name": "winner",
          "type": "address"
        },
        {
          "indexed": true,
          "internalType": "uint256",
          "name": "id",
          "type": "uint256"
        },
        {
          "indexed": false,
          "internalType": "uint256",
          "name": "timestamp",
          "type": "uint256"
        }
      ],
      "name": "NewWinner",
      "type": "event"
    },
    {
      "inputs": [],
      "name": "end",
      "outputs": [],
      "stateMutability": "nonpayable",
      "type": "function"
    },
    {
      "inputs": [],
      "name": "endTime",
      "outputs": [
        {
          "internalType": "uint256",
          "name": "",
          "type": "uint256"
        }
      ],
      "stateMutability": "view",
      "type": "function"
    },
    {
      "inputs": [],
      "name": "enter",
      "outputs": [],
      "stateMutability": "nonpayable",
      "type": "function"
    },
    {
      "inputs": [
        {
          "internalType": "uint256",
          "name": "",
          "type": "uint256"
        }
      ],
      "name": "entrants",
      "outputs": [
        {
          "internalType": "address",
          "name": "",
          "type": "address"
        }
      ],
      "stateMutability": "view",
      "type": "function"
    },
    {
      "inputs": [
        {
          "internalType": "address",
          "name": "",
          "type": "address"
        }
      ],
      "name": "entries",
      "outputs": [
        {
          "internalType": "uint256",
          "name": "",
          "type": "uint256"
        }
      ],
      "stateMutability": "view",
      "type": "function"
    },
    {
      "inputs": [],
      "name": "getEndTime",
      "outputs": [
        {
          "internalType": "uint256",
          "name": "",
          "type": "uint256"
        }
      ],
      "stateMutability": "view",
      "type": "function"
    },
    {
      "inputs": [],
      "name": "getEntrants",
      "outputs": [
        {
          "internalType": "address[]",
          "name": "",
          "type": "address[]"
        }
      ],
      "stateMutability": "view",
      "type": "function"
    },
    {
      "inputs": [],
      "name": "getID",
      "outputs": [
        {
          "internalType": "uint256",
          "name": "",
          "type": "uint256"
        }
      ],
      "stateMutability": "view",
      "type": "function"
    },
    {
      "inputs": [
        {
          "internalType": "uint256",
          "name": "_id",
          "type": "uint256"
        }
      ],
      "name": "getWinner",
      "outputs": [
        {
          "internalType": "address",
          "name": "",
          "type": "address"
        }
      ],
      "stateMutability": "view",
      "type": "function"
    },
    {
      "inputs": [],
      "name": "id",
      "outputs": [
        {
          "internalType": "uint256",
          "name": "",
          "type": "uint256"
        }
      ],
      "stateMutability": "view",
      "type": "function"
    },
    {
      "inputs": [
        {
          "internalType": "uint256",
          "name": "",
          "type": "uint256"
        }
      ],
      "name": "winners",
      "outputs": [
        {
          "internalType": "address",
          "name": "",
          "type": "address"
        }
      ],
      "stateMutability": "view",
      "type": "function"
    }
  ],
  "bytecode": "0x60806040523480156200001157600080fd5b506001600081905550610384426200002a9190620000e1565b60018190555044426040516020016200004592919062000141565b6040516020818303038152906040528051906020012060001c6002819055506000547f3387c6222ffa466e3c4df4a5afaa9076b9fb765c9403bfb96cc9003871fb249c6001546040516200009a919062000182565b60405180910390a26200019f565b6000819050919050565b7f4e487b7100000000000000000000000000000000000000000000000000000000600052601160045260246000fd5b6000620000ee82620000a8565b9150620000fb83620000a8565b9250828201905080821115620001165762000115620000b2565b5b92915050565b6000819050919050565b6200013b6200013582620000a8565b6200011c565b82525050565b60006200014f828562000126565b60208201915062000161828462000126565b6020820191508190509392505050565b6200017c81620000a8565b82525050565b600060208201905062000199600083018462000171565b92915050565b610b5080620001af6000396000f3fe608060405234801561001057600080fd5b50600436106100a95760003560e01c8063af640d0f11610071578063af640d0f14610168578063d30c60f414610186578063e7b4e5ab146101a4578063e97dcb62146101d4578063efbe1c1c146101de578063f29ee125146101e8576100a9565b80633197cbb6146100ae5780634129b2c9146100cc578063439f5ac2146100fc578063a2fb11751461011a578063ab9dbd071461014a575b600080fd5b6100b6610218565b6040516100c39190610774565b60405180910390f35b6100e660048036038101906100e191906107c0565b61021e565b6040516100f3919061082e565b60405180910390f35b61010461025b565b6040516101119190610774565b60405180910390f35b610134600480360381019061012f91906107c0565b610265565b604051610141919061082e565b60405180910390f35b610152610298565b60405161015f9190610774565b60405180910390f35b6101706102a1565b60405161017d9190610774565b60405180910390f35b61018e6102a7565b60405161019b9190610907565b60405180910390f35b6101be60048036038101906101b991906107c0565b610335565b6040516101cb919061082e565b60405180910390f35b6101dc610374565b005b6101e66104ea565b005b61020260048036038101906101fd9190610955565b6105f0565b60405161020f9190610774565b60405180910390f35b60015481565b60006005600083815260200190815260200160002060009054906101000a900473ffffffffffffffffffffffffffffffffffffffff169050919050565b6000600154905090565b60056020528060005260406000206000915054906101000a900473ffffffffffffffffffffffffffffffffffffffff1681565b60008054905090565b60005481565b6060600380548060200260200160405190810160405280929190818152602001828054801561032b57602002820191906000526020600020905b8160009054906101000a900473ffffffffffffffffffffffffffffffffffffffff1673ffffffffffffffffffffffffffffffffffffffff16815260200190600101908083116102e1575b5050505050905090565b6003818154811061034557600080fd5b906000526020600020016000915054906101000a900473ffffffffffffffffffffffffffffffffffffffff1681565b600054600460003373ffffffffffffffffffffffffffffffffffffffff1673ffffffffffffffffffffffffffffffffffffffff16815260200190815260200160002054036103ee576040517f7863668300000000000000000000000000000000000000000000000000000000815260040160405180910390fd5b6003339080600181540180825580915050600190039060005260206000200160009091909190916101000a81548173ffffffffffffffffffffffffffffffffffffffff021916908373ffffffffffffffffffffffffffffffffffffffff160217905550600054600460003373ffffffffffffffffffffffffffffffffffffffff1673ffffffffffffffffffffffffffffffffffffffff168152602001908152602001600020819055506000543373ffffffffffffffffffffffffffffffffffffffff167fc636ca1005fc6454dfb44053046512fb54887d7778dd23ecf1d09cf75216a5d3426040516104e09190610774565b60405180910390a3565b426001541115610526576040517f93361eb100000000000000000000000000000000000000000000000000000000815260040160405180910390fd5b600060038054905011156105e657600061053e610608565b905080600560008054815260200190815260200160002060006101000a81548173ffffffffffffffffffffffffffffffffffffffff021916908373ffffffffffffffffffffffffffffffffffffffff1602179055506000548173ffffffffffffffffffffffffffffffffffffffff167fc92288394ef32dd1ce054c884b9a003055b8d8d63daf2e1c2d3385bdc59b65c2426040516105dc9190610774565b60405180910390a3505b6105ee6106a5565b565b60046020528060005260406000206000915090505481565b6000804442600254604051602001610622939291906109a3565b6040516020818303038152906040528051906020012060001c90506000600380549050826106509190610a0f565b905060006003828154811061066857610667610a40565b5b9060005260206000200160009054906101000a900473ffffffffffffffffffffffffffffffffffffffff1690508260028190555080935050505090565b600360006106b3919061071d565b62015180426106c29190610a9e565b6001819055506000808154809291906106da90610ad2565b91905055506000547f3387c6222ffa466e3c4df4a5afaa9076b9fb765c9403bfb96cc9003871fb249c6001546040516107139190610774565b60405180910390a2565b508054600082559060005260206000209081019061073b919061073e565b50565b5b8082111561075757600081600090555060010161073f565b5090565b6000819050919050565b61076e8161075b565b82525050565b60006020820190506107896000830184610765565b92915050565b600080fd5b61079d8161075b565b81146107a857600080fd5b50565b6000813590506107ba81610794565b92915050565b6000602082840312156107d6576107d561078f565b5b60006107e4848285016107ab565b91505092915050565b600073ffffffffffffffffffffffffffffffffffffffff82169050919050565b6000610818826107ed565b9050919050565b6108288161080d565b82525050565b6000602082019050610843600083018461081f565b92915050565b600081519050919050565b600082825260208201905092915050565b6000819050602082019050919050565b61087e8161080d565b82525050565b60006108908383610875565b60208301905092915050565b6000602082019050919050565b60006108b482610849565b6108be8185610854565b93506108c983610865565b8060005b838110156108fa5781516108e18882610884565b97506108ec8361089c565b9250506001810190506108cd565b5085935050505092915050565b6000602082019050818103600083015261092181846108a9565b905092915050565b6109328161080d565b811461093d57600080fd5b50565b60008135905061094f81610929565b92915050565b60006020828403121561096b5761096a61078f565b5b600061097984828501610940565b91505092915050565b6000819050919050565b61099d6109988261075b565b610982565b82525050565b60006109af828661098c565b6020820191506109bf828561098c565b6020820191506109cf828461098c565b602082019150819050949350505050565b7f4e487b7100000000000000000000000000000000000000000000000000000000600052601260045260246000fd5b6000610a1a8261075b565b9150610a258361075b565b925082610a3557610a346109e0565b5b828206905092915050565b7f4e487b7100000000000000000000000000000000000000000000000000000000600052603260045260246000fd5b7f4e487b7100000000000000000000000000000000000000000000000000000000600052601160045260246000fd5b6000610aa98261075b565b9150610ab48361075b565b9250828201905080821115610acc57610acb610a6f565b5b92915050565b6000610add8261075b565b91507fffffffffffffffffffffffffffffffffffffffffffffffffffffffffffffffff8203610b0f57610b0e610a6f565b5b60018201905091905056fea26469706673582212208e7e24e59f33902f43cddd852dcdb8ec68e576f4d2c9dcabfe7cd85a7053952164736f6c63430008110033",
  "linkReferences": {},
  "deployedLinkReferences": {}
}